:020000040800F2
:100000004804002045010008F9080008F10800082C
:10001000F50800082F0200087D0D00080000000010
:10002000000000000000000000000000B90A000805
:10003000470700080000000081090008A50B000820
:100040005F0100085F0100085F0100085F01000810
:100050005F0100085F0100085F0100085F01000800
:100060005F0100085F0100085F0100085F010008F0
:100070005F0100085F0100085F0100085F010008E0
:100080005F0100085F0100085F0100085F010008D0
:100090005F0100085F0100085F0100085F010008C0
:1000A0005F0100085F0100085F0100085F010008B0
:1000B0005F0100085F0100085F0100085F010008A0
:1000C0005F0100085F0100085F0100085F01000890
:1000D0005F0100085F0100085F0100085F01000880
:1000E0005F0100085F0100085F0100085F01000870
:1000F0005F0100085F0100085F0100085F01000860
:100100005F0100085F0100085F0100085F0100084F
:100110005F0100085F0100085F0100085F0100083F
:100120005F0100085F0100085F0100085F0100082F
:10013000DFF80CD000F04AF800480047A51000088E
:10014000480400200648804706480047FEE7FEE7CF
:10015000FEE7FEE7FEE7FEE7FEE7FEE7FEE7FEE777
:10016000A90B0008310100082DE9F05F05460020C9
:1001700092469B4688460646814640241BE0284618
:1001800041464746224600F042F853465A46C01AB6
:10019000914110D311461846224600F029F82D1A35
:1001A00067EB01084F4622460120002100F020F8AD
:1001B00017EB00094E41201EA4F10104DFDC484684
:1001C00031462A464346BDE8F09F0000064C074DE5
:1001D00006E0E06840F0010394E807009847103417
:1001E000AC42F6D3FFF7A8FF4012000860120008E7
:1001F000202A04DB203A00FA02F1002070479140E7
:10020000C2F1200320FA03F3194390407047202ADB
:1002100004DB203A21FA02F00021704721FA02F3B0
:10022000D040C2F12002914008431946704700BFF8
:10023000FEE710B500F0D0F800F0BCF900F08EF940
:1002400000F0A2F810BD000010B504460B4884422F
:1002500009D10121480600F0A5FB00214FF00070F4
:1002600000F0A0FB08E00121880600F09BFB0021C4
:100270004FF0806000F096FB10BD0000006400406D
:1002800010B50021837A012202FA03F13D4A126877
:1002900042F001023B4B1A603A4A1C3212688A4310
:1002A000384B1C331A60027BCAB9364A0C321268CA
:1002B0008A43344B0C331A604288C38842EA0343B2
:1002C000304A4032847A42F834300288838842EAE5
:1002D00003432C4A4032847A02EBC4025360027B0F
:1002E000012A19D1274A0C3212680A43254B0C33D4
:1002F0001A604288038842EA0343224A4032847AE1
:1003000042F83430C288838842EA03431D4A4032AF
:10031000847A02EBC4025360C27A3AB9194A121DB8
:1003200012688A43174B1B1D1A6006E0154A121DFE
:1003300012680A43134B1B1D1A60028932B9114A15
:10034000143212688A430F4B14331A600289012A4F
:1003500006D10C4A143212680A430A4B14331A604D
:10036000427B012A06D1074A1C3212680A43054B18
:100370001C331A60034A126822F00102014B1A6012
:1003800010BD0000006600401FB500208DF80A0077
:100390008DF80B0001208DF80C000020ADF8000056
:1003A00049F6A400ADF802004FF6FF70ADF8040066
:1003B000ADF806000020ADF8080001208DF80D0012
:1003C0006846FFF75DFF01220221024800F032F883
:1003D0001FBD00000064004008B50121092000F0A5
:1003E000F1FA0121480600F0CDFA01214FF4EA109C
:1003F00000F036FA4FF48070ADF8000048208DF818
:10040000030003208DF802006946094800F09CF9BA
:100410004FF40070ADF8000018208DF803000320A1
:100420008DF802006946024800F08EF908BD000010
:10043000000C01401AB143690B43436102E0436978
:100440008B434361704730B5024600200023146897
:1004500024F002041460146844F00104146000E005
:100460005B1C546804F001041CB94FF6FF74A342EE
:10047000F6D1546804F001040CB900206CE08C79CA
:10048000012C04D1146844F08004146003E0146863
:1004900024F080041460CC79012C04D1146844F059
:1004A0004004146003E0146824F0400414600C7AE3
:1004B000012C04D1146844F02004146003E0146893
:1004C00024F0200414604C7A012C04D1146844F008
:1004D0001004146003E0146824F0100414608C7A93
:1004E000012C04D1146844F00804146003E014687B
:1004F00024F008041460CC7A012C04D1146844F070
:100500000404146003E0146824F0040414608C787C
:10051000A407CD7844EA05640D7944EA05444D7991
:1005200044EA05540D886D1E2C43D461146824F0F0
:1005300001041460002300E05B1C546804F0010413
:100540001CB14FF6FF74A342F6D1546804F00104C5
:100550000CB1002000E0012030BD00000EB51448B1
:10056000FFF772FE684600F04BF800208DF8060099
:1005700001208DF807008DF8080000208DF8090093
:100580008DF80A008DF80B008DF8020001208DF81F
:10059000030005208DF8040002208DF805000420DA
:1005A000ADF8000069460248FFF74DFF0EBD0000A0
:1005B0000064004008B54FF4C06000F0D7F9142083
:1005C0008DF8000000208DF801008DF80200012058
:1005D0008DF80300684600F091F908BD41F214302F
:1005E0000649486004200872002048720220887280
:1005F000AB20C872CD210148017370471C00002058
:1006000000218171C171017241728172C172817068
:10061000C1700321017102214171012101807047E4
:1006200010B502460020936803F08063B3F1806F39
:1006300000D110E0936803F00063B3F1006F01D1C3
:10064000012008E0936803F08053B3F1805F01D18B
:10065000022000E00420042874D002F5C07303EBEC
:1006600000131B6803F0010402F5C07303EB0013D1
:100670001C600B7A7BB94B7A0C8843EA445302F531
:10068000C07404EB00142468234302F5C07404EB27
:100690000014236010E00B7A4C6843EAC4034C7AE0
:1006A000234302F5C07404EB00142468234302F5CD
:1006B000C07404EB001423608B7A03F00F038B7279
:1006C00002F5C07303EB00135B6823F00F0402F51F
:1006D000C07303EB00135C6002F5C07303EB0013FF
:1006E0005B688C7A234302F5C07404EB00146360EA
:1006F0008B7B1C064B7B44EA03440B7B44EA0323BD
:10070000CC7A234302F5C07404EB0014A3608B7C05
:100710001C064B7C44EA03440B7C44EA0323CC7B59
:10072000234302F5C07404EB0014E36002F5C073C8
:1007300003EB00131B6843F0010402F5C07303EBE5
:1007400000131C6010BD70472DE9F04102460025E2
:100750000026002000230024002791F803C00CF09D
:100760000F0591F803C00CF0100CBCF1000F03D082
:1007700091F802C04CEA050591F800C0BCF1000FE9
:1007800031D0146800202BE04FF0010C0CFA00F37C
:10079000B1F800C00CEA03069E4220D183004FF05E
:1007A0000F0C0CFA03F7BC4305FA03FC4CEA0404F3
:1007B00091F803C0BCF1280F06D14FF0010C0CFAE0
:1007C00000FCC2F814C00AE091F803C0BCF1480F65
:1007D00005D14FF0010C0CFA00FCC2F810C0401C0F
:1007E0000828D1D31460B1F800C0BCF1FF0F34DD8C
:1007F000546800202EE000F1080C4FF0010808FAC0
:100800000CF3B1F800C00CEA03069E4221D183002C
:100810004FF00F0C0CFA03F7BC4305FA03FC4CEA4B
:10082000040491F803C0BCF1280F05D100F1080CB5
:1008300008FA0CF8C2F8148091F803C0BCF1480F14
:1008400007D100F1080C4FF0010808FA0CF8C2F8C3
:100850001080401C0828CED35460BDE8F081000011
:10086000F0B50A46002300240021002500F00046D0
:10087000B6F1004F02D11D4EF16901E01B4E7168C7
:10088000C0F3034583B200F44016B6F5401F08D10B
:1008900021F07061154E766826F07066134F7E6009
:1008A00012E000F48016B6F5801F06D1032606FA82
:1008B00005F4A14341F0706106E0460D360103FAEC
:1008C00006F6B14341F0706122B1460D360103FADC
:1008D00006F6314300F00046B6F1004F02D1034E58
:1008E000F16101E0014E7160F0BD000000000140C7
:1008F00000BFFEE700BFFEE77047000070B50021B3
:1009000000230F22C47804B3154C246804F4E06477
:10091000C4F5E064210AC1F10403CA40447804FA32
:1009200003F184781440214309010E4C0678A15547
:10093000047804F01F050124AC4005786D11AD006A
:1009400005F1E025C5F8004109E0047804F01F0531
:100950000124AC40044D0678761145F8264070BD60
:100960000CED00E000E400E080E100E0024901431A
:10097000024A1160704700000000FA050CED00E02B
:100980007047000029B1064AD2690243044BDA617C
:1009900004E0034AD2698243014BDA6170470000E8
:1009A0000010024029B1064A12690243044B1A6141
:1009B00004E0034A12698243014B1A617047000048
:1009C0000010024029B1064A92690243044B9A6121
:1009D00004E0034A92698243014B9A617047000028
:1009E0000010024030B500210022002400232D4DCC
:1009F0006D6805F00C0121B1042905D0082923D127
:100A000005E0294D056022E0274D05601FE0254DDA
:100A10006D6805F47012234D6D6805F4803402256D
:100A200005EB92421CB9214D554305600BE01D4D6D
:100A30006D6805F400351DB11C4D5543056002E09D
:100A4000194D5543056002E0174D056000BF00BF1A
:100A5000144D6D6805F0F0010909154D6B5C0568D2
:100A6000DD4045600F4D6D6805F4E061090A104DE9
:100A70006B5C4568DD4085600A4D6D6805F460512A
:100A8000C90A0B4D6B5C4568DD40C560054D6D685E
:100A900005F44041890B074D6B5CC568B5FBF3F568
:100AA000056130BD0010024000127A0000093D00CF
:100AB0000000002010000020704710B500F002F880
:100AC00010BD00000CB50020019000903348006874
:100AD00040F480303149086000BF3048006800F4BD
:100AE000003000900198401C0190009818B90198BE
:100AF000B0F5A06FF1D12948006800F4003010B1C2
:100B00000120009001E0002000900098012843D1CE
:100B10002348006840F0100021490860084600683A
:100B200020F0030008600846006840F002000860FA
:100B30001A484068194948600846406848600846B5
:100B4000406840F4806048600846406820F47C10AB
:100B500048600846406840F4E8104860084600686D
:100B600040F08070086000BF0C48006800F0007022
:100B70000028F9D00948406820F003000749486080
:100B80000846406840F00200486000BF03484068E3
:100B900000F00C000828F9D10CBD00000010024044
:100BA000002002407047000010B51348006840F074
:100BB00001001149086008464068104908400E4984
:100BC0004860084600680E4908400B49086008461E
:100BD000006820F4802008600846406820F4FE0089
:100BE00048604FF41F008860FFF767FF4FF0006018
:100BF0000449086010BD0000001002400000FFF82A
:100C0000FFFFF6FE08ED00E000B585B0012144F2DB
:100C10000400FFF7D7FE4FF40070ADF81000182065
:100C20008DF8130003208DF8120004A91348FFF774
:100C30008BFD4FF48060ADF8100004208DF8130098
:100C400004A90E48FFF780FD4FF4E130009000202A
:100C5000ADF80400ADF80600ADF80800ADF80C00E2
:100C60000C20ADF80A006946054800F017F801218C
:100C7000034800F007F805B000BD0000000801407F
:100C80000038014021B1828942F40052828104E09F
:100C900082894DF6FF731A40828170472DE9F04733
:100CA00086B005460E460024A24600BFA146002796
:100CB000B08900B100BF2F462C8A4CF6FF7004406B
:100CC000F08804432C82AC894EF6F3100440B088BF
:100CD00031890843718908430443AC81AC8A4FF6DB
:100CE000FF400440B0890443AC8201A8FFF77AFEBC
:100CF0001F48874202D1DDF810A001E0DDF80CA00A
:100D0000A88900F4004040B10AEBCA0000EB0A10C9
:100D100031684900B0FBF1F807E00AEBCA0000EBCC
:100D20000A1031688900B0FBF1F86420B8FBF0F0DC
:100D300004012009642101FB1089A88900F4004006
:100D400040B1322000EBC900B0FBF1F000F0070029
:100D5000044308E0322000EB09106421B0FBF1F0FD
:100D600000F00F0004432C8106B0BDE8F0870000BE
:100D700000380140C1F308028280704700BFFEE7DF
:100D80000FB4054B10B503A9044A029800F018F8F7
:100D900010BC5DF814FB0000811000081800002052
:100DA00002E008C8121F08C1002AFAD17047704734
:100DB000002001E001C1121F002AFBD17047000092
:100DC0002DE9FF4F8DB09B460F460446002606E0F6
:100DD00025280BD05A460F999047641C761C207822
:100DE0000028F5D111B03046BDE8F08F0025A846A7
:100DF0000122984900E0054314F8013F203B02FA24
:100E000003F00842F7D120782E2817D114F8010FEB
:100E100045F004052A280ED06FF02F022078A0F1AB
:100E2000300109290AD808EB880102EB410100EBE7
:100E30000108641CF2E757F8048B641C20786C28C6
:100E40000DD004DC4C2812D06A2811D104E074289B
:100E50000DD07A280CD10AE045F4001507E061783E
:100E600045F48015814202D1641C05F58015641C8F
:100E70002278692A45D008DC002AB3D0582A69D0E4
:100E8000632A10D0642A08D13BE0702A67D0732A05
:100E900013D0752A5CD0782A5CD010465A460F9938
:100EA0009047761CD3E017F8040B8DF80000002063
:100EB0008DF80100E946012003E057F8049B4FF04C
:100EC000FF3069074FF0000501D40AE06D1C45456D
:100ED0000DDA8542FADB19F805100029F6D106E093
:100EE0006D1C8542FCDB19F805100029F8D12E4451
:100EF00004E019F8010B5A460F9990476D1EF8D27D
:100F0000A5E00A200021CDE90801C5F3025002281E
:100F10000DD001CFC117031E71F100030DDA4FF0A0
:100F2000000CD0EB0C006CEB01012D2308E0FF1D41
:100F300027F00707F7E80201EDE72B0504D52B237F
:100F40008DF8283001233BE0EB0739D02023F7E769
:100F50000A2000E010200021CDE9080107E0102060
:100F6000002145F00405CDE908014FF00808C5F35C
:100F7000025002280FD001CF00214FF0000A2B07AA
:100F80001FD5702A0DD0DDE908C38CF0100C5CEA87
:100F9000030C0CD015E0FF1D27F00707F7E802014E
:100FA000EBE740228DF828204FF0010A0BE050EAD1
:100FB000010306D030238DF828308DF82920022334
:100FC0009A46582A04D024A20DF120090B9209E078
:100FD00026A2F9E7DDE90823FFF7C6F80B9B9B5C27
:100FE00009F8013D50EA0102F4D1ADEB09002030CF
:100FF0000890680701D44FF001080899884502DD80
:10100000A8EB010000E000208046002506E00AA8C9
:101010005A46405D0F9990476D1C761C5545F6DB8E
:1010200004E030205A460F999047761CB8F1000131
:10103000A8F10108F5DC05E019F8010B5A460F99F3
:101040009047761C0899481E08900029F4DC641C1F
:10105000C5E6000009280100303132333435363717
:1010600038396162636465660000000030313233F4
:101070003435363738394142434445460000000094
:1010800070B504460D46E1B20548FFF773FE00BF98
:101090000348008800F080000028F9D0204670BD89
:1010A00000380140FFF7B0FDFFF7C3F818A0FFF7C5
:1010B00067FE22A0FFF764FEFFF790FA28A0FFF773
:1010C0005FFE2E4841682EA0FFF75AFE2B48027B98
:1010D000C17A31A0FFF754FE28493B48FFF7A0FA38
:1010E00000BF3A480068FF28FBD039A0FFF748FE50
:1010F00040A0FFF745FE4548416821A0FFF740FEAC
:101100004248027BC17A42A0FFF73AFE00BFFEE7E9
:101110000D0A2A2A2A2A2A20D5E2CAC7D2BBB8F643
:10112000CBAB43414ECDA8D1B6CAB5D1E92A2A2AC4
:101130002A2A2A2A2A200D0A000000000D0A20D59A
:10114000E2CAC720A1B0D6F7BBFAB6CBA1B120B591
:10115000C4B7B4C0A1D0C5CFA2A3BA200D0A000065
:101160000D0ABDABD2AAB7A2CBCDB5C4B1A8CEC42F
:10117000C4DAC8DDCEAAA3BA0D0A00001C00002004
:101180000D0A20C0A9D5B94944BAC5457874496447
:10119000A3BA3078257800000D0A20CAFDBEDDB65E
:1011A000CEB5C4C4DAC8DD3A446174615B305D3DDC
:1011B0003078257820A3AC446174615B315D3D30AB
:1011C000782578200D0A00000064004014000020FB
:1011D0000D0A20B3C9B9A6BDD3CAD5B5BDA1B0B457
:1011E000D3BBFAA1B1B7B5BBD8B5C4CAFDBEDD0D3E
:1011F0000A2000000D0A20BDD3CAD5B5BDB5C4B1C3
:10120000A8CEC4CEAAA3BA0D0A0000003000002068
:101210000D0A20CAFDBEDDB6CEB5C4C4DAC8DD3ABB
:10122000446174615B305D3D203078257820A3AC4B
:10123000446174615B315D3D30782578200D0A0092
:1012400060120008000000201C000000A00D000833
:101250007C1200081C0000202C040000B00D0008C7
:10126000000000000102030401020304060708094C
:0C12700002040608FF000000000000005F
:0400000508000131BD
:00000001FF
